{
  "contractName": "Vesting",
  "abi": [
    {
      "inputs": [
        {
          "internalType": "contract IERC20",
          "name": "_token",
          "type": "address"
        }
      ],
      "stateMutability": "nonpayable",
      "type": "constructor"
    },
    {
      "anonymous": false,
      "inputs": [
        {
          "indexed": true,
          "internalType": "address",
          "name": "beneficiary",
          "type": "address"
        },
        {
          "indexed": false,
          "internalType": "uint256",
          "name": "amount",
          "type": "uint256"
        },
        {
          "indexed": false,
          "internalType": "enum Vesting.Role",
          "name": "role",
          "type": "uint8"
        }
      ],
      "name": "BeneficiaryAdded",
      "type": "event"
    },
    {
      "anonymous": false,
      "inputs": [
        {
          "indexed": true,
          "internalType": "address",
          "name": "previousOwner",
          "type": "address"
        },
        {
          "indexed": true,
          "internalType": "address",
          "name": "newOwner",
          "type": "address"
        }
      ],
      "name": "OwnershipTransferred",
      "type": "event"
    },
    {
      "anonymous": false,
      "inputs": [
        {
          "indexed": true,
          "internalType": "address",
          "name": "beneficiary",
          "type": "address"
        },
        {
          "indexed": false,
          "internalType": "uint256",
          "name": "amount",
          "type": "uint256"
        }
      ],
      "name": "TokensReleased",
      "type": "event"
    },
    {
      "inputs": [
        {
          "internalType": "address",
          "name": "",
          "type": "address"
        }
      ],
      "name": "addBeneficiaries",
      "outputs": [
        {
          "internalType": "bool",
          "name": "",
          "type": "bool"
        }
      ],
      "stateMutability": "view",
      "type": "function"
    },
    {
      "inputs": [
        {
          "internalType": "address",
          "name": "",
          "type": "address"
        }
      ],
      "name": "beneficiaries",
      "outputs": [
        {
          "internalType": "uint256",
          "name": "cliff",
          "type": "uint256"
        },
        {
          "internalType": "uint256",
          "name": "start",
          "type": "uint256"
        },
        {
          "internalType": "uint256",
          "name": "duration",
          "type": "uint256"
        },
        {
          "internalType": "uint256",
          "name": "amount",
          "type": "uint256"
        },
        {
          "internalType": "uint256",
          "name": "released",
          "type": "uint256"
        }
      ],
      "stateMutability": "view",
      "type": "function"
    },
    {
      "inputs": [],
      "name": "owner",
      "outputs": [
        {
          "internalType": "address",
          "name": "",
          "type": "address"
        }
      ],
      "stateMutability": "view",
      "type": "function"
    },
    {
      "inputs": [],
      "name": "renounceOwnership",
      "outputs": [],
      "stateMutability": "nonpayable",
      "type": "function"
    },
    {
      "inputs": [],
      "name": "token",
      "outputs": [
        {
          "internalType": "contract IERC20",
          "name": "",
          "type": "address"
        }
      ],
      "stateMutability": "view",
      "type": "function"
    },
    {
      "inputs": [
        {
          "internalType": "address",
          "name": "newOwner",
          "type": "address"
        }
      ],
      "name": "transferOwnership",
      "outputs": [],
      "stateMutability": "nonpayable",
      "type": "function"
    },
    {
      "inputs": [
        {
          "internalType": "address",
          "name": "_beneficiary",
          "type": "address"
        },
        {
          "internalType": "uint256",
          "name": "_cliff",
          "type": "uint256"
        },
        {
          "internalType": "uint256",
          "name": "_duration",
          "type": "uint256"
        },
        {
          "internalType": "enum Vesting.Role",
          "name": "_role",
          "type": "uint8"
        }
      ],
      "name": "addBeneficiary",
      "outputs": [],
      "stateMutability": "nonpayable",
      "type": "function"
    },
    {
      "inputs": [],
      "name": "releaseTokens",
      "outputs": [],
      "stateMutability": "nonpayable",
      "type": "function"
    }
  ],
  "bytecode": "0x60806040523480156200001157600080fd5b5060405162001687380380620016878339818101604052810190620000379190620001e9565b620000576200004b6200009f60201b60201c565b620000a760201b60201c565b80600160006101000a81548173ffffffffffffffffffffffffffffffffffffffff021916908373ffffffffffffffffffffffffffffffffffffffff160217905550506200021b565b600033905090565b60008060009054906101000a900473ffffffffffffffffffffffffffffffffffffffff169050816000806101000a81548173ffffffffffffffffffffffffffffffffffffffff021916908373ffffffffffffffffffffffffffffffffffffffff1602179055508173ffffffffffffffffffffffffffffffffffffffff168173ffffffffffffffffffffffffffffffffffffffff167f8be0079c531659141344cd1fd0a4f28419497f9722a3daafe3b4186f6b6457e060405160405180910390a35050565b600080fd5b600073ffffffffffffffffffffffffffffffffffffffff82169050919050565b60006200019d8262000170565b9050919050565b6000620001b18262000190565b9050919050565b620001c381620001a4565b8114620001cf57600080fd5b50565b600081519050620001e381620001b8565b92915050565b6000602082840312156200020257620002016200016b565b5b60006200021284828501620001d2565b91505092915050565b61145c806200022b6000396000f3fe608060405234801561001057600080fd5b50600436106100885760003560e01c80639252d73b1161005b5780639252d73b14610105578063a96f866814610135578063f2fde38b1461013f578063fc0c546a1461015b57610088565b8063015677391461008d5780635ba6e9e2146100c1578063715018a6146100dd5780638da5cb5b146100e7575b600080fd5b6100a760048036038101906100a29190610bde565b610179565b6040516100b8959493929190610c24565b60405180910390f35b6100db60048036038101906100d69190610cc8565b6101af565b005b6100e56105d0565b005b6100ef610658565b6040516100fc9190610d3e565b60405180910390f35b61011f600480360381019061011a9190610bde565b610681565b60405161012c9190610d74565b60405180910390f35b61013d6106a1565b005b61015960048036038101906101549190610bde565b610901565b005b6101636109f8565b6040516101709190610dee565b60405180910390f35b60026020528060005260406000206000915090508060000154908060010154908060020154908060030154908060040154905085565b6101b7610a1e565b73ffffffffffffffffffffffffffffffffffffffff166101d5610658565b73ffffffffffffffffffffffffffffffffffffffff161461022b576040517f08c379a000000000000000000000000000000000000000000000000000000000815260040161022290610e66565b60405180910390fd5b600360008573ffffffffffffffffffffffffffffffffffffffff1673ffffffffffffffffffffffffffffffffffffffff16815260200190815260200160002060009054906101000a900460ff16156102b8576040517f08c379a00000000000000000000000000000000000000000000000000000000081526004016102af90610ed2565b60405180910390fd5b6000600160009054906101000a900473ffffffffffffffffffffffffffffffffffffffff1673ffffffffffffffffffffffffffffffffffffffff166370a08231306040518263ffffffff1660e01b81526004016103159190610d3e565b602060405180830381865afa158015610332573d6000803e3d6000fd5b505050506040513d601f19601f820116820180604052508101906103569190610f07565b9050600080600281111561036d5761036c610f34565b5b8360028111156103805761037f610f34565b5b036103a55760646032836103949190610f92565b61039e919061101b565b9050610479565b600160028111156103b9576103b8610f34565b5b8360028111156103cc576103cb610f34565b5b036103f15760646019836103e09190610f92565b6103ea919061101b565b9050610478565b60028081111561040457610403610f34565b5b83600281111561041757610416610f34565b5b0361043c57606460198361042b9190610f92565b610435919061101b565b9050610477565b6040517f08c379a000000000000000000000000000000000000000000000000000000000815260040161046e90611098565b60405180910390fd5b5b5b6040518060a00160405280864261049091906110b8565b81526020014281526020018581526020018281526020016000815250600260008873ffffffffffffffffffffffffffffffffffffffff1673ffffffffffffffffffffffffffffffffffffffff16815260200190815260200160002060008201518160000155602082015181600101556040820151816002015560608201518160030155608082015181600401559050506001600360008873ffffffffffffffffffffffffffffffffffffffff1673ffffffffffffffffffffffffffffffffffffffff16815260200190815260200160002060006101000a81548160ff0219169083151502179055508573ffffffffffffffffffffffffffffffffffffffff167f4e7ee520cdf23a6622a36304e4b1833a45cd853e58d3e40659b1f2eec12eae0282856040516105c0929190611156565b60405180910390a2505050505050565b6105d8610a1e565b73ffffffffffffffffffffffffffffffffffffffff166105f6610658565b73ffffffffffffffffffffffffffffffffffffffff161461064c576040517f08c379a000000000000000000000000000000000000000000000000000000000815260040161064390610e66565b60405180910390fd5b6106566000610a26565b565b60008060009054906101000a900473ffffffffffffffffffffffffffffffffffffffff16905090565b60036020528060005260406000206000915054906101000a900460ff1681565b6000600260003373ffffffffffffffffffffffffffffffffffffffff1673ffffffffffffffffffffffffffffffffffffffff1681526020019081526020016000209050806000015442101561072b576040517f08c379a0000000000000000000000000000000000000000000000000000000008152600401610722906111cb565b60405180910390fd5b6000610773826040518060a001604052908160008201548152602001600182015481526020016002820154815260200160038201548152602001600482015481525050610aea565b9050600081116107b8576040517f08c379a00000000000000000000000000000000000000000000000000000000081526004016107af90611237565b60405180910390fd5b8082600401546107c891906110b8565b8260040181905550600160009054906101000a900473ffffffffffffffffffffffffffffffffffffffff1673ffffffffffffffffffffffffffffffffffffffff1663a9059cbb33836040518363ffffffff1660e01b815260040161082d929190611257565b6020604051808303816000875af115801561084c573d6000803e3d6000fd5b505050506040513d601f19601f8201168201806040525081019061087091906112ac565b6108af576040517f08c379a00000000000000000000000000000000000000000000000000000000081526004016108a690611325565b60405180910390fd5b3373ffffffffffffffffffffffffffffffffffffffff167fc7798891864187665ac6dd119286e44ec13f014527aeeb2b8eb3fd413df93179826040516108f59190611345565b60405180910390a25050565b610909610a1e565b73ffffffffffffffffffffffffffffffffffffffff16610927610658565b73ffffffffffffffffffffffffffffffffffffffff161461097d576040517f08c379a000000000000000000000000000000000000000000000000000000000815260040161097490610e66565b60405180910390fd5b600073ffffffffffffffffffffffffffffffffffffffff168173ffffffffffffffffffffffffffffffffffffffff16036109ec576040517f08c379a00000000000000000000000000000000000000000000000000000000081526004016109e3906113d2565b60405180910390fd5b6109f581610a26565b50565b600160009054906101000a900473ffffffffffffffffffffffffffffffffffffffff1681565b600033905090565b60008060009054906101000a900473ffffffffffffffffffffffffffffffffffffffff169050816000806101000a81548173ffffffffffffffffffffffffffffffffffffffff021916908373ffffffffffffffffffffffffffffffffffffffff1602179055508173ffffffffffffffffffffffffffffffffffffffff168173ffffffffffffffffffffffffffffffffffffffff167f8be0079c531659141344cd1fd0a4f28419497f9722a3daafe3b4186f6b6457e060405160405180910390a35050565b60008160000151421015610b015760009050610b76565b81604001518260200151610b1591906110b8565b4210610b365781608001518260600151610b2f91906113f2565b9050610b76565b81608001518260400151836020015142610b5091906113f2565b8460600151610b5f9190610f92565b610b69919061101b565b610b7391906113f2565b90505b919050565b600080fd5b600073ffffffffffffffffffffffffffffffffffffffff82169050919050565b6000610bab82610b80565b9050919050565b610bbb81610ba0565b8114610bc657600080fd5b50565b600081359050610bd881610bb2565b92915050565b600060208284031215610bf457610bf3610b7b565b5b6000610c0284828501610bc9565b91505092915050565b6000819050919050565b610c1e81610c0b565b82525050565b600060a082019050610c396000830188610c15565b610c466020830187610c15565b610c536040830186610c15565b610c606060830185610c15565b610c6d6080830184610c15565b9695505050505050565b610c8081610c0b565b8114610c8b57600080fd5b50565b600081359050610c9d81610c77565b92915050565b60038110610cb057600080fd5b50565b600081359050610cc281610ca3565b92915050565b60008060008060808587031215610ce257610ce1610b7b565b5b6000610cf087828801610bc9565b9450506020610d0187828801610c8e565b9350506040610d1287828801610c8e565b9250506060610d2387828801610cb3565b91505092959194509250565b610d3881610ba0565b82525050565b6000602082019050610d536000830184610d2f565b92915050565b60008115159050919050565b610d6e81610d59565b82525050565b6000602082019050610d896000830184610d65565b92915050565b6000819050919050565b6000610db4610daf610daa84610b80565b610d8f565b610b80565b9050919050565b6000610dc682610d99565b9050919050565b6000610dd882610dbb565b9050919050565b610de881610dcd565b82525050565b6000602082019050610e036000830184610ddf565b92915050565b600082825260208201905092915050565b7f4f776e61626c653a2063616c6c6572206973206e6f7420746865206f776e6572600082015250565b6000610e50602083610e09565b9150610e5b82610e1a565b602082019050919050565b60006020820190508181036000830152610e7f81610e43565b9050919050565b7f62656e656669636961727920616c726561647920616464656400000000000000600082015250565b6000610ebc601983610e09565b9150610ec782610e86565b602082019050919050565b60006020820190508181036000830152610eeb81610eaf565b9050919050565b600081519050610f0181610c77565b92915050565b600060208284031215610f1d57610f1c610b7b565b5b6000610f2b84828501610ef2565b91505092915050565b7f4e487b7100000000000000000000000000000000000000000000000000000000600052602160045260246000fd5b7f4e487b7100000000000000000000000000000000000000000000000000000000600052601160045260246000fd5b6000610f9d82610c0b565b9150610fa883610c0b565b9250817fffffffffffffffffffffffffffffffffffffffffffffffffffffffffffffffff0483118215151615610fe157610fe0610f63565b5b828202905092915050565b7f4e487b7100000000000000000000000000000000000000000000000000000000600052601260045260246000fd5b600061102682610c0b565b915061103183610c0b565b92508261104157611040610fec565b5b828204905092915050565b7f496e76616c696420726f6c650000000000000000000000000000000000000000600082015250565b6000611082600c83610e09565b915061108d8261104c565b602082019050919050565b600060208201905081810360008301526110b181611075565b9050919050565b60006110c382610c0b565b91506110ce83610c0b565b9250827fffffffffffffffffffffffffffffffffffffffffffffffffffffffffffffffff0382111561110357611102610f63565b5b828201905092915050565b6003811061111f5761111e610f34565b5b50565b60008190506111308261110e565b919050565b600061114082611122565b9050919050565b61115081611135565b82525050565b600060408201905061116b6000830185610c15565b6111786020830184611147565b9392505050565b7f636c69666620706572696f64206e6f7420726561636865642100000000000000600082015250565b60006111b5601983610e09565b91506111c08261117f565b602082019050919050565b600060208201905081810360008301526111e4816111a8565b9050919050565b7f6e6f2076657374656420746f6b656e7320617661696c61626c65000000000000600082015250565b6000611221601a83610e09565b915061122c826111eb565b602082019050919050565b6000602082019050818103600083015261125081611214565b9050919050565b600060408201905061126c6000830185610d2f565b6112796020830184610c15565b9392505050565b61128981610d59565b811461129457600080fd5b50565b6000815190506112a681611280565b92915050565b6000602082840312156112c2576112c1610b7b565b5b60006112d084828501611297565b91505092915050565b7f746f6b656e207472616e73666572206661696c65640000000000000000000000600082015250565b600061130f601583610e09565b915061131a826112d9565b602082019050919050565b6000602082019050818103600083015261133e81611302565b9050919050565b600060208201905061135a6000830184610c15565b92915050565b7f4f776e61626c653a206e6577206f776e657220697320746865207a65726f206160008201527f6464726573730000000000000000000000000000000000000000000000000000602082015250565b60006113bc602683610e09565b91506113c782611360565b604082019050919050565b600060208201905081810360008301526113eb816113af565b9050919050565b60006113fd82610c0b565b915061140883610c0b565b92508282101561141b5761141a610f63565b5b82820390509291505056fea264697066735822122037b2afd20ada19733280e2f2659b59632efb0ae59ca46bcd4fcda728d7f6c73764736f6c634300080d0033",
  "immutableReferences": {},
  "source": "// SPDX-License-Identifier: MIT\r\npragma solidity ^0.8.13;\r\n\r\n// importing necessary libarries from openzeppelin\r\nimport \"@openzeppelin/contracts/token/ERC20/IERC20.sol\";\r\nimport \"@openzeppelin/contracts/access/Ownable.sol\";\r\n\r\ncontract Vesting is Ownable {\r\n    IERC20 public token;\r\n\r\n    //roles for the beneficiaires\r\n    enum Role{User, Partner, Team}\r\n    \r\n    //initialized sturct called schedule for the beneficiary\r\n    struct Schedule {\r\n        uint256 cliff;\r\n        uint256 start;\r\n        uint256 duration;\r\n        uint256 amount;\r\n        uint256 released;\r\n    }\r\n\r\n    //mapping to store and check the beneficiaries (and added to track the no. of users)\r\n    mapping (address => Schedule) public beneficiaries;\r\n    mapping (address => bool) public addBeneficiaries;\r\n\r\n    event BeneficiaryAdded(address indexed beneficiary, uint256 amount, Role role);\r\n    event TokensReleased(address indexed beneficiary, uint256 amount);\r\n\r\n    constructor(IERC20 _token) {\r\n        token = _token;\r\n    }\r\n\r\n    // adding new beneficicary\r\n    function addBeneficiary(address _beneficiary, uint256 _cliff, uint256 _duration, Role _role) external onlyOwner {\r\n        // check if they exist or not\r\n        require(!addBeneficiaries[_beneficiary], \"beneficiary already added\");\r\n\r\n        uint256 totalTokens = token.balanceOf(address(this));\r\n        uint256 amount = 0;\r\n\r\n        if (_role == Role.User) {\r\n            amount = totalTokens * 50 / 100; // 50% of total tokens allocated to users\r\n        } else if (_role == Role.Partner) {\r\n            amount = totalTokens * 25 / 100; // 25% of total tokens allocated to partners\r\n        } else if (_role == Role.Team) {\r\n            amount = totalTokens * 25 / 100; // 25% of total tokens allocated to teams\r\n        } else {\r\n            revert(\"Invalid role\");\r\n        }\r\n\r\n        beneficiaries[_beneficiary] = Schedule({\r\n            cliff: block.timestamp + _cliff, // cliff period start\r\n            start: block.timestamp, // vesting start time\r\n            duration: _duration, // duration\r\n            amount: amount, // amount allocated\r\n            released: 0 // amount/tokens released (set to zero because new members have empty balances)\r\n        });\r\n\r\n        addBeneficiaries[_beneficiary] = true; // marking the beneficiary\r\n        emit BeneficiaryAdded(_beneficiary, amount, _role);\r\n    }\r\n\r\n    // function to calculate the amount relealse\r\n    function _vestedAmount(Schedule memory schedule) internal view returns (uint256) {\r\n        if (block.timestamp < schedule.cliff) {\r\n            return 0;\r\n        }\r\n        if (block.timestamp >= schedule.start + schedule.duration) {\r\n            return schedule.amount - schedule.released;\r\n        }\r\n        return (schedule.amount * (block.timestamp - schedule.start)) / schedule.duration - schedule.released;\r\n    }\r\n\r\n    //function to release the amount\r\n    function releaseTokens() external {\r\n        Schedule storage schedule = beneficiaries[msg.sender];\r\n        require(block.timestamp >= schedule.cliff, \"cliff period not reached!\");\r\n        uint256 vested = _vestedAmount(schedule);\r\n        require(vested > 0, \"no vested tokens available\");\r\n\r\n        schedule.released = schedule.released + vested;\r\n        require(token.transfer(msg.sender, vested), \"token transfer failed\");\r\n\r\n        emit TokensReleased(msg.sender, vested);\r\n    }\r\n}\r\n",
  "sourcePath": "D:\\bc\\vesting-contracts\\contracts\\Vesting.sol",
  "compiler": {
    "name": "solc",
    "version": "0.8.13+commit.abaa5c0e.Emscripten.clang"
  },
  "schemaVersion": "3.4.16",
  "updatedAt": "2024-07-28T07:37:30.889Z",
  "devdoc": {
    "kind": "dev",
    "methods": {
      "owner()": {
        "details": "Returns the address of the current owner."
      },
      "renounceOwnership()": {
        "details": "Leaves the contract without owner. It will not be possible to call `onlyOwner` functions anymore. Can only be called by the current owner. NOTE: Renouncing ownership will leave the contract without an owner, thereby removing any functionality that is only available to the owner."
      },
      "transferOwnership(address)": {
        "details": "Transfers ownership of the contract to a new account (`newOwner`). Can only be called by the current owner."
      }
    },
    "version": 1
  },
  "userdoc": {
    "kind": "user",
    "methods": {},
    "version": 1
  }
}