{
  "contractName": "Vesting",
  "abi": [
    {
      "inputs": [
        {
          "internalType": "contract IERC20",
          "name": "_token",
          "type": "address"
        }
      ],
      "stateMutability": "nonpayable",
      "type": "constructor"
    },
    {
      "anonymous": false,
      "inputs": [
        {
          "indexed": true,
          "internalType": "address",
          "name": "beneficiary",
          "type": "address"
        },
        {
          "indexed": false,
          "internalType": "uint256",
          "name": "amount",
          "type": "uint256"
        },
        {
          "indexed": false,
          "internalType": "enum Vesting.Role",
          "name": "role",
          "type": "uint8"
        }
      ],
      "name": "BeneficiaryAdded",
      "type": "event"
    },
    {
      "anonymous": false,
      "inputs": [
        {
          "indexed": true,
          "internalType": "address",
          "name": "previousOwner",
          "type": "address"
        },
        {
          "indexed": true,
          "internalType": "address",
          "name": "newOwner",
          "type": "address"
        }
      ],
      "name": "OwnershipTransferred",
      "type": "event"
    },
    {
      "anonymous": false,
      "inputs": [
        {
          "indexed": true,
          "internalType": "address",
          "name": "beneficiary",
          "type": "address"
        },
        {
          "indexed": false,
          "internalType": "uint256",
          "name": "amount",
          "type": "uint256"
        }
      ],
      "name": "TokensReleased",
      "type": "event"
    },
    {
      "anonymous": false,
      "inputs": [],
      "name": "VestingStarted",
      "type": "event"
    },
    {
      "inputs": [
        {
          "internalType": "address",
          "name": "",
          "type": "address"
        }
      ],
      "name": "addBeneficiaries",
      "outputs": [
        {
          "internalType": "bool",
          "name": "",
          "type": "bool"
        }
      ],
      "stateMutability": "view",
      "type": "function",
      "constant": true
    },
    {
      "inputs": [
        {
          "internalType": "address",
          "name": "",
          "type": "address"
        }
      ],
      "name": "beneficiaries",
      "outputs": [
        {
          "internalType": "uint256",
          "name": "cliff",
          "type": "uint256"
        },
        {
          "internalType": "uint256",
          "name": "start",
          "type": "uint256"
        },
        {
          "internalType": "uint256",
          "name": "duration",
          "type": "uint256"
        },
        {
          "internalType": "uint256",
          "name": "amount",
          "type": "uint256"
        },
        {
          "internalType": "uint256",
          "name": "released",
          "type": "uint256"
        }
      ],
      "stateMutability": "view",
      "type": "function",
      "constant": true
    },
    {
      "inputs": [],
      "name": "owner",
      "outputs": [
        {
          "internalType": "address",
          "name": "",
          "type": "address"
        }
      ],
      "stateMutability": "view",
      "type": "function",
      "constant": true
    },
    {
      "inputs": [],
      "name": "renounceOwnership",
      "outputs": [],
      "stateMutability": "nonpayable",
      "type": "function"
    },
    {
      "inputs": [],
      "name": "token",
      "outputs": [
        {
          "internalType": "contract IERC20",
          "name": "",
          "type": "address"
        }
      ],
      "stateMutability": "view",
      "type": "function",
      "constant": true
    },
    {
      "inputs": [],
      "name": "totalPartners",
      "outputs": [
        {
          "internalType": "uint256",
          "name": "",
          "type": "uint256"
        }
      ],
      "stateMutability": "view",
      "type": "function",
      "constant": true
    },
    {
      "inputs": [],
      "name": "totalTeams",
      "outputs": [
        {
          "internalType": "uint256",
          "name": "",
          "type": "uint256"
        }
      ],
      "stateMutability": "view",
      "type": "function",
      "constant": true
    },
    {
      "inputs": [],
      "name": "totalUsers",
      "outputs": [
        {
          "internalType": "uint256",
          "name": "",
          "type": "uint256"
        }
      ],
      "stateMutability": "view",
      "type": "function",
      "constant": true
    },
    {
      "inputs": [
        {
          "internalType": "address",
          "name": "newOwner",
          "type": "address"
        }
      ],
      "name": "transferOwnership",
      "outputs": [],
      "stateMutability": "nonpayable",
      "type": "function"
    },
    {
      "inputs": [
        {
          "internalType": "address",
          "name": "_beneficiary",
          "type": "address"
        },
        {
          "internalType": "uint256",
          "name": "_amount",
          "type": "uint256"
        },
        {
          "internalType": "uint256",
          "name": "_cliff",
          "type": "uint256"
        },
        {
          "internalType": "uint256",
          "name": "_duration",
          "type": "uint256"
        },
        {
          "internalType": "enum Vesting.Role",
          "name": "_role",
          "type": "uint8"
        }
      ],
      "name": "addBeneficiary",
      "outputs": [],
      "stateMutability": "nonpayable",
      "type": "function"
    },
    {
      "inputs": [],
      "name": "releaseTokens",
      "outputs": [],
      "stateMutability": "nonpayable",
      "type": "function"
    }
  ],
  "bytecode": "0x60806040523480156200001157600080fd5b50604051620017e0380380620017e08339818101604052810190620000379190620001e9565b620000576200004b6200009f60201b60201c565b620000a760201b60201c565b80600160006101000a81548173ffffffffffffffffffffffffffffffffffffffff021916908373ffffffffffffffffffffffffffffffffffffffff160217905550506200021b565b600033905090565b60008060009054906101000a900473ffffffffffffffffffffffffffffffffffffffff169050816000806101000a81548173ffffffffffffffffffffffffffffffffffffffff021916908373ffffffffffffffffffffffffffffffffffffffff1602179055508173ffffffffffffffffffffffffffffffffffffffff168173ffffffffffffffffffffffffffffffffffffffff167f8be0079c531659141344cd1fd0a4f28419497f9722a3daafe3b4186f6b6457e060405160405180910390a35050565b600080fd5b600073ffffffffffffffffffffffffffffffffffffffff82169050919050565b60006200019d8262000170565b9050919050565b6000620001b18262000190565b9050919050565b620001c381620001a4565b8114620001cf57600080fd5b50565b600081519050620001e381620001b8565b92915050565b6000602082840312156200020257620002016200016b565b5b60006200021284828501620001d2565b91505092915050565b6115b5806200022b6000396000f3fe608060405234801561001057600080fd5b50600436106100a95760003560e01c80639252d73b116100715780639252d73b14610146578063a96f866814610176578063bff1f9e114610180578063f1ac44021461019e578063f2fde38b146101ba578063fc0c546a146101d6576100a9565b806301567739146100ae5780632a686304146100e2578063654c6daf14610100578063715018a61461011e5780638da5cb5b14610128575b600080fd5b6100c860048036038101906100c39190610cdb565b6101f4565b6040516100d9959493929190610d21565b60405180910390f35b6100ea61022a565b6040516100f79190610d74565b60405180910390f35b610108610230565b6040516101159190610d74565b60405180910390f35b610126610236565b005b6101306102be565b60405161013d9190610d9e565b60405180910390f35b610160600480360381019061015b9190610cdb565b6102e7565b60405161016d9190610dd4565b60405180910390f35b61017e610307565b005b610188610567565b6040516101959190610d74565b60405180910390f35b6101b860048036038101906101b39190610e40565b61056d565b005b6101d460048036038101906101cf9190610cdb565b6109fe565b005b6101de610af5565b6040516101eb9190610f1a565b60405180910390f35b60026020528060005260406000206000915090508060000154908060010154908060020154908060030154908060040154905085565b60055481565b60065481565b61023e610b1b565b73ffffffffffffffffffffffffffffffffffffffff1661025c6102be565b73ffffffffffffffffffffffffffffffffffffffff16146102b2576040517f08c379a00000000000000000000000000000000000000000000000000000000081526004016102a990610f92565b60405180910390fd5b6102bc6000610b23565b565b60008060009054906101000a900473ffffffffffffffffffffffffffffffffffffffff16905090565b60036020528060005260406000206000915054906101000a900460ff1681565b6000600260003373ffffffffffffffffffffffffffffffffffffffff1673ffffffffffffffffffffffffffffffffffffffff16815260200190815260200160002090508060000154421015610391576040517f08c379a000000000000000000000000000000000000000000000000000000000815260040161038890610ffe565b60405180910390fd5b60006103d9826040518060a001604052908160008201548152602001600182015481526020016002820154815260200160038201548152602001600482015481525050610be7565b90506000811161041e576040517f08c379a00000000000000000000000000000000000000000000000000000000081526004016104159061106a565b60405180910390fd5b80826004015461042e91906110b9565b8260040181905550600160009054906101000a900473ffffffffffffffffffffffffffffffffffffffff1673ffffffffffffffffffffffffffffffffffffffff1663a9059cbb33836040518363ffffffff1660e01b815260040161049392919061110f565b6020604051808303816000875af11580156104b2573d6000803e3d6000fd5b505050506040513d601f19601f820116820180604052508101906104d69190611164565b610515576040517f08c379a000000000000000000000000000000000000000000000000000000000815260040161050c906111dd565b60405180910390fd5b3373ffffffffffffffffffffffffffffffffffffffff167fc7798891864187665ac6dd119286e44ec13f014527aeeb2b8eb3fd413df931798260405161055b9190610d74565b60405180910390a25050565b60045481565b610575610b1b565b73ffffffffffffffffffffffffffffffffffffffff166105936102be565b73ffffffffffffffffffffffffffffffffffffffff16146105e9576040517f08c379a00000000000000000000000000000000000000000000000000000000081526004016105e090610f92565b60405180910390fd5b600360008673ffffffffffffffffffffffffffffffffffffffff1673ffffffffffffffffffffffffffffffffffffffff16815260200190815260200160002060009054906101000a900460ff1615610676576040517f08c379a000000000000000000000000000000000000000000000000000000000815260040161066d90611249565b60405180910390fd5b600080600160009054906101000a900473ffffffffffffffffffffffffffffffffffffffff1673ffffffffffffffffffffffffffffffffffffffff166370a08231306040518263ffffffff1660e01b81526004016106d49190610d9e565b602060405180830381865afa1580156106f1573d6000803e3d6000fd5b505050506040513d601f19601f82011682018060405250810190610715919061127e565b90506000600281111561072b5761072a6112ab565b5b83600281111561073e5761073d6112ab565b5b036107885760046000815480929190610756906112da565b9190505550600454606460328361076d9190611322565b61077791906113ab565b61078191906113ab565b91506108a6565b6001600281111561079c5761079b6112ab565b5b8360028111156107af576107ae6112ab565b5b036107f957600560008154809291906107c7906112da565b919050555060055460646019836107de9190611322565b6107e891906113ab565b6107f291906113ab565b91506108a5565b60028081111561080c5761080b6112ab565b5b83600281111561081f5761081e6112ab565b5b036108695760066000815480929190610837906112da565b9190505550600654606460198361084e9190611322565b61085891906113ab565b61086291906113ab565b91506108a4565b6040517f08c379a000000000000000000000000000000000000000000000000000000000815260040161089b90611428565b60405180910390fd5b5b5b6040518060a0016040528086426108bd91906110b9565b81526020014281526020018581526020018381526020016000815250600260008973ffffffffffffffffffffffffffffffffffffffff1673ffffffffffffffffffffffffffffffffffffffff16815260200190815260200160002060008201518160000155602082015181600101556040820151816002015560608201518160030155608082015181600401559050506001600360008973ffffffffffffffffffffffffffffffffffffffff1673ffffffffffffffffffffffffffffffffffffffff16815260200190815260200160002060006101000a81548160ff0219169083151502179055508673ffffffffffffffffffffffffffffffffffffffff167f4e7ee520cdf23a6622a36304e4b1833a45cd853e58d3e40659b1f2eec12eae0287856040516109ed929190611490565b60405180910390a250505050505050565b610a06610b1b565b73ffffffffffffffffffffffffffffffffffffffff16610a246102be565b73ffffffffffffffffffffffffffffffffffffffff1614610a7a576040517f08c379a0000000000000000000000000000000000000000000000000000000008152600401610a7190610f92565b60405180910390fd5b600073ffffffffffffffffffffffffffffffffffffffff168173ffffffffffffffffffffffffffffffffffffffff1603610ae9576040517f08c379a0000000000000000000000000000000000000000000000000000000008152600401610ae09061152b565b60405180910390fd5b610af281610b23565b50565b600160009054906101000a900473ffffffffffffffffffffffffffffffffffffffff1681565b600033905090565b60008060009054906101000a900473ffffffffffffffffffffffffffffffffffffffff169050816000806101000a81548173ffffffffffffffffffffffffffffffffffffffff021916908373ffffffffffffffffffffffffffffffffffffffff1602179055508173ffffffffffffffffffffffffffffffffffffffff168173ffffffffffffffffffffffffffffffffffffffff167f8be0079c531659141344cd1fd0a4f28419497f9722a3daafe3b4186f6b6457e060405160405180910390a35050565b60008160000151421015610bfe5760009050610c73565b81604001518260200151610c1291906110b9565b4210610c335781608001518260600151610c2c919061154b565b9050610c73565b81608001518260400151836020015142610c4d919061154b565b8460600151610c5c9190611322565b610c6691906113ab565b610c70919061154b565b90505b919050565b600080fd5b600073ffffffffffffffffffffffffffffffffffffffff82169050919050565b6000610ca882610c7d565b9050919050565b610cb881610c9d565b8114610cc357600080fd5b50565b600081359050610cd581610caf565b92915050565b600060208284031215610cf157610cf0610c78565b5b6000610cff84828501610cc6565b91505092915050565b6000819050919050565b610d1b81610d08565b82525050565b600060a082019050610d366000830188610d12565b610d436020830187610d12565b610d506040830186610d12565b610d5d6060830185610d12565b610d6a6080830184610d12565b9695505050505050565b6000602082019050610d896000830184610d12565b92915050565b610d9881610c9d565b82525050565b6000602082019050610db36000830184610d8f565b92915050565b60008115159050919050565b610dce81610db9565b82525050565b6000602082019050610de96000830184610dc5565b92915050565b610df881610d08565b8114610e0357600080fd5b50565b600081359050610e1581610def565b92915050565b60038110610e2857600080fd5b50565b600081359050610e3a81610e1b565b92915050565b600080600080600060a08688031215610e5c57610e5b610c78565b5b6000610e6a88828901610cc6565b9550506020610e7b88828901610e06565b9450506040610e8c88828901610e06565b9350506060610e9d88828901610e06565b9250506080610eae88828901610e2b565b9150509295509295909350565b6000819050919050565b6000610ee0610edb610ed684610c7d565b610ebb565b610c7d565b9050919050565b6000610ef282610ec5565b9050919050565b6000610f0482610ee7565b9050919050565b610f1481610ef9565b82525050565b6000602082019050610f2f6000830184610f0b565b92915050565b600082825260208201905092915050565b7f4f776e61626c653a2063616c6c6572206973206e6f7420746865206f776e6572600082015250565b6000610f7c602083610f35565b9150610f8782610f46565b602082019050919050565b60006020820190508181036000830152610fab81610f6f565b9050919050565b7f636c69666620706572696f64206e6f7420726561636865642100000000000000600082015250565b6000610fe8601983610f35565b9150610ff382610fb2565b602082019050919050565b6000602082019050818103600083015261101781610fdb565b9050919050565b7f6e6f2076657374656420746f6b656e7320617661696c61626c65000000000000600082015250565b6000611054601a83610f35565b915061105f8261101e565b602082019050919050565b6000602082019050818103600083015261108381611047565b9050919050565b7f4e487b7100000000000000000000000000000000000000000000000000000000600052601160045260246000fd5b60006110c482610d08565b91506110cf83610d08565b9250827fffffffffffffffffffffffffffffffffffffffffffffffffffffffffffffffff038211156111045761110361108a565b5b828201905092915050565b60006040820190506111246000830185610d8f565b6111316020830184610d12565b9392505050565b61114181610db9565b811461114c57600080fd5b50565b60008151905061115e81611138565b92915050565b60006020828403121561117a57611179610c78565b5b60006111888482850161114f565b91505092915050565b7f746f6b656e207472616e73666572206661696c65640000000000000000000000600082015250565b60006111c7601583610f35565b91506111d282611191565b602082019050919050565b600060208201905081810360008301526111f6816111ba565b9050919050565b7f62656e656669636961727920616c726561647920616464656400000000000000600082015250565b6000611233601983610f35565b915061123e826111fd565b602082019050919050565b6000602082019050818103600083015261126281611226565b9050919050565b60008151905061127881610def565b92915050565b60006020828403121561129457611293610c78565b5b60006112a284828501611269565b91505092915050565b7f4e487b7100000000000000000000000000000000000000000000000000000000600052602160045260246000fd5b60006112e582610d08565b91507fffffffffffffffffffffffffffffffffffffffffffffffffffffffffffffffff82036113175761131661108a565b5b600182019050919050565b600061132d82610d08565b915061133883610d08565b9250817fffffffffffffffffffffffffffffffffffffffffffffffffffffffffffffffff04831182151516156113715761137061108a565b5b828202905092915050565b7f4e487b7100000000000000000000000000000000000000000000000000000000600052601260045260246000fd5b60006113b682610d08565b91506113c183610d08565b9250826113d1576113d061137c565b5b828204905092915050565b7f496e76616c696420726f6c650000000000000000000000000000000000000000600082015250565b6000611412600c83610f35565b915061141d826113dc565b602082019050919050565b6000602082019050818103600083015261144181611405565b9050919050565b60038110611459576114586112ab565b5b50565b600081905061146a82611448565b919050565b600061147a8261145c565b9050919050565b61148a8161146f565b82525050565b60006040820190506114a56000830185610d12565b6114b26020830184611481565b9392505050565b7f4f776e61626c653a206e6577206f776e657220697320746865207a65726f206160008201527f6464726573730000000000000000000000000000000000000000000000000000602082015250565b6000611515602683610f35565b9150611520826114b9565b604082019050919050565b6000602082019050818103600083015261154481611508565b9050919050565b600061155682610d08565b915061156183610d08565b9250828210156115745761157361108a565b5b82820390509291505056fea26469706673582212203e38f40afc89fc152744a2360743debe7c40438c88f7b5bf2d431c94b03e695764736f6c634300080d0033",
  "immutableReferences": {},
  "source": "// SPDX-License-Identifier: MIT\r\npragma solidity ^0.8.13;\r\n\r\n// importing necessary libarries from openzeppelin\r\nimport \"@openzeppelin/contracts/token/ERC20/IERC20.sol\";\r\nimport \"@openzeppelin/contracts/access/Ownable.sol\";\r\n\r\n\r\ncontract Vesting is Ownable {\r\n    IERC20 public token;\r\n\r\n    //roles for the beneficiaires\r\n    enum Role{User, Partner, Team}\r\n    \r\n    //initialized sturct called schedule for the beneficiary\r\n    struct Schedule {\r\n        uint256 cliff;\r\n        uint256 start;\r\n        uint256 duration;\r\n        uint256 amount;\r\n        uint256 released;\r\n    }\r\n\r\n    //mapping to store and check the beneficiaries (and added to track the no. of users)\r\n    mapping (address => Schedule) public beneficiaries;\r\n    mapping (address => bool) public addBeneficiaries;\r\n    uint256 public totalUsers;\r\n    uint256 public totalPartners;\r\n    uint256 public totalTeams;\r\n\r\n    event BeneficiaryAdded(address indexed beneficiary, uint256 amount, Role role);\r\n    event TokensReleased(address indexed beneficiary, uint256 amount);\r\n    event VestingStarted();\r\n\r\n    constructor(IERC20 _token) {\r\n        token = _token;\r\n    }\r\n\r\n    // adding new beneficicary\r\n    function addBeneficiary(address _beneficiary, uint256 _amount, uint256 _cliff, uint256 _duration, Role _role) external onlyOwner () {\r\n        // check if they exisit or not\r\n        require(!addBeneficiaries[_beneficiary], \"beneficiary already added\");\r\n\r\n        uint256 amount;\r\n        uint256 totalTokens = token.balanceOf(address(this));\r\n        //division of amount/tokens\r\n        if (_role == Role.User) {\r\n            totalUsers++;\r\n            amount = (totalTokens * 50) / 100 / totalUsers; // 50% of amount is given to the users\r\n        } \r\n        else if (_role == Role.Partner) {\r\n            totalPartners++;\r\n            amount = (totalTokens * 25) / 100 / totalPartners; // 25% of amount is given to the partners\r\n        } \r\n        else if (_role == Role.Team) {\r\n            totalTeams++;\r\n            amount = (totalTokens * 25) / 100 / totalTeams; // 25% of amount is given to the teams\r\n        } else {\r\n            revert(\"Invalid role\");\r\n        }\r\n\r\n        beneficiaries[_beneficiary] = Schedule({\r\n            cliff: block.timestamp + _cliff, // cliff period start\r\n            start: block.timestamp, // vesting start time\r\n            duration: _duration, // duration\r\n            amount: amount, // amount allocated\r\n            released: 0 // amount/tokens released (set to zero because new members have empty balances)\r\n        });\r\n        addBeneficiaries[_beneficiary] = true; //marking the beneficiary\r\n        emit BeneficiaryAdded(_beneficiary, _amount, _role);\r\n    }\r\n\r\n    // function to calculate the amount relealse\r\n    function _vestedAmount(Schedule memory schedule) internal view returns (uint256) {\r\n        if (block.timestamp < schedule.cliff) {\r\n            return 0;\r\n        }\r\n        else if (block.timestamp >= schedule.start + schedule.duration){\r\n            return schedule.amount - schedule.released;\r\n        }\r\n        else{\r\n            return(schedule.amount * (block.timestamp - schedule.start)) / schedule.duration - schedule.released;\r\n        }\r\n    }\r\n\r\n    //function to release the amount\r\n    function releaseTokens() external {\r\n        Schedule storage schedule = beneficiaries[msg.sender];\r\n        require(block.timestamp >= schedule.cliff, \"cliff period not reached!\");\r\n        uint256 vested = _vestedAmount(schedule);\r\n        require(vested > 0, \"no vested tokens available\");\r\n\r\n        schedule.released = schedule.released + vested;\r\n        require(token.transfer(msg.sender, vested), \"token transfer failed\");\r\n\r\n        emit TokensReleased(msg.sender, vested);\r\n    }\r\n}\r\n",
  "sourcePath": "D:\\bc\\vesting-contracts\\contracts\\Vesting.sol",
  "compiler": {
    "name": "solc",
    "version": "0.8.13+commit.abaa5c0e.Emscripten.clang"
  },
  "schemaVersion": "3.4.16",
  "updatedAt": "2024-07-28T04:12:59.206Z",
  "networkType": "ethereum",
  "devdoc": {
    "kind": "dev",
    "methods": {
      "owner()": {
        "details": "Returns the address of the current owner."
      },
      "renounceOwnership()": {
        "details": "Leaves the contract without owner. It will not be possible to call `onlyOwner` functions anymore. Can only be called by the current owner. NOTE: Renouncing ownership will leave the contract without an owner, thereby removing any functionality that is only available to the owner."
      },
      "transferOwnership(address)": {
        "details": "Transfers ownership of the contract to a new account (`newOwner`). Can only be called by the current owner."
      }
    },
    "version": 1
  },
  "userdoc": {
    "kind": "user",
    "methods": {},
    "version": 1
  }
}