{
  "contractName": "Vesting",
  "abi": [
    {
      "inputs": [
        {
          "internalType": "contract IERC20",
          "name": "_token",
          "type": "address"
        }
      ],
      "stateMutability": "nonpayable",
      "type": "constructor"
    },
    {
      "inputs": [
        {
          "internalType": "address",
          "name": "owner",
          "type": "address"
        }
      ],
      "name": "OwnableInvalidOwner",
      "type": "error"
    },
    {
      "inputs": [
        {
          "internalType": "address",
          "name": "account",
          "type": "address"
        }
      ],
      "name": "OwnableUnauthorizedAccount",
      "type": "error"
    },
    {
      "anonymous": false,
      "inputs": [
        {
          "indexed": true,
          "internalType": "address",
          "name": "beneficiary",
          "type": "address"
        },
        {
          "indexed": false,
          "internalType": "uint256",
          "name": "amount",
          "type": "uint256"
        }
      ],
      "name": "BeneficiaryAdded",
      "type": "event"
    },
    {
      "anonymous": false,
      "inputs": [
        {
          "indexed": true,
          "internalType": "address",
          "name": "previousOwner",
          "type": "address"
        },
        {
          "indexed": true,
          "internalType": "address",
          "name": "newOwner",
          "type": "address"
        }
      ],
      "name": "OwnershipTransferred",
      "type": "event"
    },
    {
      "anonymous": false,
      "inputs": [
        {
          "indexed": true,
          "internalType": "address",
          "name": "beneficiary",
          "type": "address"
        },
        {
          "indexed": false,
          "internalType": "uint256",
          "name": "amount",
          "type": "uint256"
        }
      ],
      "name": "TokensReleased",
      "type": "event"
    },
    {
      "anonymous": false,
      "inputs": [],
      "name": "VestingStarted",
      "type": "event"
    },
    {
      "inputs": [
        {
          "internalType": "address",
          "name": "",
          "type": "address"
        }
      ],
      "name": "addBeneficiaries",
      "outputs": [
        {
          "internalType": "bool",
          "name": "",
          "type": "bool"
        }
      ],
      "stateMutability": "view",
      "type": "function"
    },
    {
      "inputs": [
        {
          "internalType": "address",
          "name": "",
          "type": "address"
        }
      ],
      "name": "beneficiaries",
      "outputs": [
        {
          "internalType": "uint256",
          "name": "cliff",
          "type": "uint256"
        },
        {
          "internalType": "uint256",
          "name": "start",
          "type": "uint256"
        },
        {
          "internalType": "uint256",
          "name": "duration",
          "type": "uint256"
        },
        {
          "internalType": "uint256",
          "name": "amount",
          "type": "uint256"
        },
        {
          "internalType": "uint256",
          "name": "released",
          "type": "uint256"
        }
      ],
      "stateMutability": "view",
      "type": "function"
    },
    {
      "inputs": [],
      "name": "owner",
      "outputs": [
        {
          "internalType": "address",
          "name": "",
          "type": "address"
        }
      ],
      "stateMutability": "view",
      "type": "function"
    },
    {
      "inputs": [],
      "name": "renounceOwnership",
      "outputs": [],
      "stateMutability": "nonpayable",
      "type": "function"
    },
    {
      "inputs": [],
      "name": "token",
      "outputs": [
        {
          "internalType": "contract IERC20",
          "name": "",
          "type": "address"
        }
      ],
      "stateMutability": "view",
      "type": "function"
    },
    {
      "inputs": [
        {
          "internalType": "address",
          "name": "newOwner",
          "type": "address"
        }
      ],
      "name": "transferOwnership",
      "outputs": [],
      "stateMutability": "nonpayable",
      "type": "function"
    },
    {
      "inputs": [
        {
          "internalType": "address",
          "name": "_beneficiary",
          "type": "address"
        },
        {
          "internalType": "uint256",
          "name": "_amount",
          "type": "uint256"
        },
        {
          "internalType": "uint256",
          "name": "_cliff",
          "type": "uint256"
        },
        {
          "internalType": "uint256",
          "name": "_duration",
          "type": "uint256"
        }
      ],
      "name": "addBeneficiary",
      "outputs": [],
      "stateMutability": "nonpayable",
      "type": "function"
    },
    {
      "inputs": [],
      "name": "releaseTokens",
      "outputs": [],
      "stateMutability": "nonpayable",
      "type": "function"
    }
  ],
  "bytecode": "0x608060405234801562000010575f80fd5b50604051620011583803806200115883398181016040528101906200003691906200023c565b335f73ffffffffffffffffffffffffffffffffffffffff168173ffffffffffffffffffffffffffffffffffffffff1603620000aa575f6040517f1e4fbdf7000000000000000000000000000000000000000000000000000000008152600401620000a191906200027d565b60405180910390fd5b620000bb816200010360201b60201c565b508060015f6101000a81548173ffffffffffffffffffffffffffffffffffffffff021916908373ffffffffffffffffffffffffffffffffffffffff1602179055505062000298565b5f805f9054906101000a900473ffffffffffffffffffffffffffffffffffffffff169050815f806101000a81548173ffffffffffffffffffffffffffffffffffffffff021916908373ffffffffffffffffffffffffffffffffffffffff1602179055508173ffffffffffffffffffffffffffffffffffffffff168173ffffffffffffffffffffffffffffffffffffffff167f8be0079c531659141344cd1fd0a4f28419497f9722a3daafe3b4186f6b6457e060405160405180910390a35050565b5f80fd5b5f73ffffffffffffffffffffffffffffffffffffffff82169050919050565b5f620001f382620001c8565b9050919050565b5f6200020682620001e7565b9050919050565b6200021881620001fa565b811462000223575f80fd5b50565b5f8151905062000236816200020d565b92915050565b5f60208284031215620002545762000253620001c4565b5b5f620002638482850162000226565b91505092915050565b6200027781620001e7565b82525050565b5f602082019050620002925f8301846200026c565b92915050565b610eb280620002a65f395ff3fe608060405234801561000f575f80fd5b5060043610610086575f3560e01c8063a96f866811610059578063a96f866814610116578063b095e12914610120578063f2fde38b1461013c578063fc0c546a1461015857610086565b8063015677391461008a578063715018a6146100be5780638da5cb5b146100c85780639252d73b146100e6575b5f80fd5b6100a4600480360381019061009f9190610915565b610176565b6040516100b5959493929190610958565b60405180910390f35b6100c66101a8565b005b6100d06101bb565b6040516100dd91906109b8565b60405180910390f35b61010060048036038101906100fb9190610915565b6101e2565b60405161010d91906109eb565b60405180910390f35b61011e6101ff565b005b61013a60048036038101906101359190610a2e565b610454565b005b61015660048036038101906101519190610915565b610631565b005b6101606106b5565b60405161016d9190610aed565b60405180910390f35b6002602052805f5260405f205f91509050805f0154908060010154908060020154908060030154908060040154905085565b6101b06106da565b6101b95f610761565b565b5f805f9054906101000a900473ffffffffffffffffffffffffffffffffffffffff16905090565b6003602052805f5260405f205f915054906101000a900460ff1681565b5f60025f3373ffffffffffffffffffffffffffffffffffffffff1673ffffffffffffffffffffffffffffffffffffffff1681526020019081526020015f209050805f0154421015610285576040517f08c379a000000000000000000000000000000000000000000000000000000000815260040161027c90610b60565b60405180910390fd5b5f6102cb826040518060a00160405290815f8201548152602001600182015481526020016002820154815260200160038201548152602001600482015481525050610822565b90505f811161030f576040517f08c379a000000000000000000000000000000000000000000000000000000000815260040161030690610bc8565b60405180910390fd5b80826004015461031f9190610c13565b826004018190555060015f9054906101000a900473ffffffffffffffffffffffffffffffffffffffff1673ffffffffffffffffffffffffffffffffffffffff1663a9059cbb33836040518363ffffffff1660e01b8152600401610383929190610c46565b6020604051808303815f875af115801561039f573d5f803e3d5ffd5b505050506040513d601f19601f820116820180604052508101906103c39190610c97565b610402576040517f08c379a00000000000000000000000000000000000000000000000000000000081526004016103f990610d0c565b60405180910390fd5b3373ffffffffffffffffffffffffffffffffffffffff167fc7798891864187665ac6dd119286e44ec13f014527aeeb2b8eb3fd413df93179826040516104489190610d2a565b60405180910390a25050565b61045c6106da565b60035f8573ffffffffffffffffffffffffffffffffffffffff1673ffffffffffffffffffffffffffffffffffffffff1681526020019081526020015f205f9054906101000a900460ff16156104e6576040517f08c379a00000000000000000000000000000000000000000000000000000000081526004016104dd90610d8d565b60405180910390fd5b6040518060a0016040528083426104fd9190610c13565b81526020014281526020018281526020018481526020015f81525060025f8673ffffffffffffffffffffffffffffffffffffffff1673ffffffffffffffffffffffffffffffffffffffff1681526020019081526020015f205f820151815f015560208201518160010155604082015181600201556060820151816003015560808201518160040155905050600160035f8673ffffffffffffffffffffffffffffffffffffffff1673ffffffffffffffffffffffffffffffffffffffff1681526020019081526020015f205f6101000a81548160ff0219169083151502179055508373ffffffffffffffffffffffffffffffffffffffff167fe6b83177f11971ba30369bb38b914ffba97d5969a3c857b286fa8fdbb150b3ba846040516106239190610d2a565b60405180910390a250505050565b6106396106da565b5f73ffffffffffffffffffffffffffffffffffffffff168173ffffffffffffffffffffffffffffffffffffffff16036106a9575f6040517f1e4fbdf70000000000000000000000000000000000000000000000000000000081526004016106a091906109b8565b60405180910390fd5b6106b281610761565b50565b60015f9054906101000a900473ffffffffffffffffffffffffffffffffffffffff1681565b6106e26108b0565b73ffffffffffffffffffffffffffffffffffffffff166107006101bb565b73ffffffffffffffffffffffffffffffffffffffff161461075f576107236108b0565b6040517f118cdaa700000000000000000000000000000000000000000000000000000000815260040161075691906109b8565b60405180910390fd5b565b5f805f9054906101000a900473ffffffffffffffffffffffffffffffffffffffff169050815f806101000a81548173ffffffffffffffffffffffffffffffffffffffff021916908373ffffffffffffffffffffffffffffffffffffffff1602179055508173ffffffffffffffffffffffffffffffffffffffff168173ffffffffffffffffffffffffffffffffffffffff167f8be0079c531659141344cd1fd0a4f28419497f9722a3daafe3b4186f6b6457e060405160405180910390a35050565b5f815f0151421015610836575f90506108ab565b8160400151826020015161084a9190610c13565b421061086b57816080015182606001516108649190610dab565b90506108ab565b816080015182604001518360200151426108859190610dab565b84606001516108949190610dde565b61089e9190610e4c565b6108a89190610dab565b90505b919050565b5f33905090565b5f80fd5b5f73ffffffffffffffffffffffffffffffffffffffff82169050919050565b5f6108e4826108bb565b9050919050565b6108f4816108da565b81146108fe575f80fd5b50565b5f8135905061090f816108eb565b92915050565b5f6020828403121561092a576109296108b7565b5b5f61093784828501610901565b91505092915050565b5f819050919050565b61095281610940565b82525050565b5f60a08201905061096b5f830188610949565b6109786020830187610949565b6109856040830186610949565b6109926060830185610949565b61099f6080830184610949565b9695505050505050565b6109b2816108da565b82525050565b5f6020820190506109cb5f8301846109a9565b92915050565b5f8115159050919050565b6109e5816109d1565b82525050565b5f6020820190506109fe5f8301846109dc565b92915050565b610a0d81610940565b8114610a17575f80fd5b50565b5f81359050610a2881610a04565b92915050565b5f805f8060808587031215610a4657610a456108b7565b5b5f610a5387828801610901565b9450506020610a6487828801610a1a565b9350506040610a7587828801610a1a565b9250506060610a8687828801610a1a565b91505092959194509250565b5f819050919050565b5f610ab5610ab0610aab846108bb565b610a92565b6108bb565b9050919050565b5f610ac682610a9b565b9050919050565b5f610ad782610abc565b9050919050565b610ae781610acd565b82525050565b5f602082019050610b005f830184610ade565b92915050565b5f82825260208201905092915050565b7f636c69666620706572696f64206e6f74207265616368656421000000000000005f82015250565b5f610b4a601983610b06565b9150610b5582610b16565b602082019050919050565b5f6020820190508181035f830152610b7781610b3e565b9050919050565b7f6e6f2076657374656420746f6b656e7320617661696c61626c650000000000005f82015250565b5f610bb2601a83610b06565b9150610bbd82610b7e565b602082019050919050565b5f6020820190508181035f830152610bdf81610ba6565b9050919050565b7f4e487b71000000000000000000000000000000000000000000000000000000005f52601160045260245ffd5b5f610c1d82610940565b9150610c2883610940565b9250828201905080821115610c4057610c3f610be6565b5b92915050565b5f604082019050610c595f8301856109a9565b610c666020830184610949565b9392505050565b610c76816109d1565b8114610c80575f80fd5b50565b5f81519050610c9181610c6d565b92915050565b5f60208284031215610cac57610cab6108b7565b5b5f610cb984828501610c83565b91505092915050565b7f746f6b656e207472616e73666572206661696c656400000000000000000000005f82015250565b5f610cf6601583610b06565b9150610d0182610cc2565b602082019050919050565b5f6020820190508181035f830152610d2381610cea565b9050919050565b5f602082019050610d3d5f830184610949565b92915050565b7f62656e656669636961727920616c7265616479206164646564000000000000005f82015250565b5f610d77601983610b06565b9150610d8282610d43565b602082019050919050565b5f6020820190508181035f830152610da481610d6b565b9050919050565b5f610db582610940565b9150610dc083610940565b9250828203905081811115610dd857610dd7610be6565b5b92915050565b5f610de882610940565b9150610df383610940565b9250828202610e0181610940565b91508282048414831517610e1857610e17610be6565b5b5092915050565b7f4e487b71000000000000000000000000000000000000000000000000000000005f52601260045260245ffd5b5f610e5682610940565b9150610e6183610940565b925082610e7157610e70610e1f565b5b82820490509291505056fea2646970667358221220547df59461935fbe9d4a867f3bf7198939eb70c0e25bd2d810ec6f56706c50e064736f6c63430008150033",
  "immutableReferences": {},
  "source": "// SPDX-License-Identifier: MIT\r\npragma solidity ^0.8.0;\r\n\r\nimport \"@openzeppelin/contracts/token/ERC20/IERC20.sol\";\r\nimport \"@openzeppelin/contracts/access/Ownable.sol\";\r\n\r\n\r\ncontract Vesting is Ownable {\r\n    IERC20 public token;\r\n    \r\n    struct Schedule {\r\n        uint256 cliff;\r\n        uint256 start;\r\n        uint256 duration;\r\n        uint256 amount;\r\n        uint256 released;\r\n    }\r\n\r\n    mapping (address => Schedule) public beneficiaries;\r\n    mapping (address => bool) public addBeneficiaries;\r\n\r\n    event BeneficiaryAdded(address indexed beneficiary, uint256 amount);\r\n    event TokensReleased(address indexed beneficiary, uint256 amount);\r\n    event VestingStarted();\r\n\r\n    constructor(IERC20 _token) Ownable(msg.sender) {\r\n        token = _token;\r\n    }\r\n\r\n    function addBeneficiary(address _beneficiary, uint256 _amount, uint256 _cliff, uint256 _duration) external onlyOwner () {\r\n        require(!addBeneficiaries[_beneficiary], \"beneficiary already added\");\r\n        beneficiaries[_beneficiary] = Schedule({\r\n            cliff: block.timestamp + _cliff,\r\n            start: block.timestamp,\r\n            duration: _duration,\r\n            amount: _amount,\r\n            released: 0\r\n        });\r\n        addBeneficiaries[_beneficiary] = true;\r\n        emit BeneficiaryAdded(_beneficiary, _amount);\r\n    }\r\n\r\n    function _vestedAmount(Schedule memory schedule) internal view returns (uint256) {\r\n        if (block.timestamp < schedule.cliff) {\r\n            return 0;\r\n        }\r\n        else if (block.timestamp >= schedule.start + schedule.duration){\r\n            return schedule.amount - schedule.released;\r\n        }\r\n        else{\r\n            return(schedule.amount * (block.timestamp - schedule.start)) / schedule.duration - schedule.released;\r\n        }\r\n    }\r\n\r\n    function releaseTokens() external {\r\n        Schedule storage schedule = beneficiaries[msg.sender];\r\n        require(block.timestamp >= schedule.cliff, \"cliff period not reached!\");\r\n        uint256 vested = _vestedAmount(schedule);\r\n        require(vested > 0, \"no vested tokens available\");\r\n\r\n        schedule.released = schedule.released + vested;\r\n        require(token.transfer(msg.sender, vested), \"token transfer failed\");\r\n\r\n        emit TokensReleased(msg.sender, vested);\r\n    }\r\n}\r\n",
  "sourcePath": "D:\\bc\\vesting-contracts\\contracts\\Vesting.sol",
  "compiler": {
    "name": "solc",
    "version": "0.8.21+commit.d9974bed.Emscripten.clang"
  },
  "schemaVersion": "3.4.16",
  "updatedAt": "2024-07-28T02:33:12.522Z",
  "devdoc": {
    "errors": {
      "OwnableInvalidOwner(address)": [
        {
          "details": "The owner is not a valid owner account. (eg. `address(0)`)"
        }
      ],
      "OwnableUnauthorizedAccount(address)": [
        {
          "details": "The caller account is not authorized to perform an operation."
        }
      ]
    },
    "kind": "dev",
    "methods": {
      "owner()": {
        "details": "Returns the address of the current owner."
      },
      "renounceOwnership()": {
        "details": "Leaves the contract without owner. It will not be possible to call `onlyOwner` functions. Can only be called by the current owner. NOTE: Renouncing ownership will leave the contract without an owner, thereby disabling any functionality that is only available to the owner."
      },
      "transferOwnership(address)": {
        "details": "Transfers ownership of the contract to a new account (`newOwner`). Can only be called by the current owner."
      }
    },
    "version": 1
  },
  "userdoc": {
    "kind": "user",
    "methods": {},
    "version": 1
  }
}