{
  "contractName": "Vesting",
  "abi": [
    {
      "inputs": [
        {
          "internalType": "contract IERC20",
          "name": "_token",
          "type": "address"
        }
      ],
      "stateMutability": "nonpayable",
      "type": "constructor"
    },
    {
      "anonymous": false,
      "inputs": [
        {
          "indexed": true,
          "internalType": "address",
          "name": "beneficiary",
          "type": "address"
        },
        {
          "indexed": false,
          "internalType": "uint256",
          "name": "amount",
          "type": "uint256"
        },
        {
          "indexed": false,
          "internalType": "enum Vesting.Role",
          "name": "role",
          "type": "uint8"
        }
      ],
      "name": "BeneficiaryAdded",
      "type": "event"
    },
    {
      "anonymous": false,
      "inputs": [
        {
          "indexed": true,
          "internalType": "address",
          "name": "previousOwner",
          "type": "address"
        },
        {
          "indexed": true,
          "internalType": "address",
          "name": "newOwner",
          "type": "address"
        }
      ],
      "name": "OwnershipTransferred",
      "type": "event"
    },
    {
      "anonymous": false,
      "inputs": [
        {
          "indexed": true,
          "internalType": "address",
          "name": "beneficiary",
          "type": "address"
        },
        {
          "indexed": false,
          "internalType": "uint256",
          "name": "amount",
          "type": "uint256"
        }
      ],
      "name": "TokensReleased",
      "type": "event"
    },
    {
      "inputs": [
        {
          "internalType": "address",
          "name": "",
          "type": "address"
        }
      ],
      "name": "addBeneficiaries",
      "outputs": [
        {
          "internalType": "bool",
          "name": "",
          "type": "bool"
        }
      ],
      "stateMutability": "view",
      "type": "function",
      "constant": true
    },
    {
      "inputs": [
        {
          "internalType": "address",
          "name": "",
          "type": "address"
        }
      ],
      "name": "beneficiaries",
      "outputs": [
        {
          "internalType": "uint256",
          "name": "cliff",
          "type": "uint256"
        },
        {
          "internalType": "uint256",
          "name": "start",
          "type": "uint256"
        },
        {
          "internalType": "uint256",
          "name": "duration",
          "type": "uint256"
        },
        {
          "internalType": "uint256",
          "name": "amount",
          "type": "uint256"
        },
        {
          "internalType": "uint256",
          "name": "released",
          "type": "uint256"
        }
      ],
      "stateMutability": "view",
      "type": "function",
      "constant": true
    },
    {
      "inputs": [],
      "name": "owner",
      "outputs": [
        {
          "internalType": "address",
          "name": "",
          "type": "address"
        }
      ],
      "stateMutability": "view",
      "type": "function",
      "constant": true
    },
    {
      "inputs": [],
      "name": "renounceOwnership",
      "outputs": [],
      "stateMutability": "nonpayable",
      "type": "function"
    },
    {
      "inputs": [],
      "name": "token",
      "outputs": [
        {
          "internalType": "contract IERC20",
          "name": "",
          "type": "address"
        }
      ],
      "stateMutability": "view",
      "type": "function",
      "constant": true
    },
    {
      "inputs": [
        {
          "internalType": "address",
          "name": "newOwner",
          "type": "address"
        }
      ],
      "name": "transferOwnership",
      "outputs": [],
      "stateMutability": "nonpayable",
      "type": "function"
    },
    {
      "inputs": [
        {
          "internalType": "address",
          "name": "_beneficiary",
          "type": "address"
        },
        {
          "internalType": "uint256",
          "name": "_cliff",
          "type": "uint256"
        },
        {
          "internalType": "uint256",
          "name": "_duration",
          "type": "uint256"
        },
        {
          "internalType": "enum Vesting.Role",
          "name": "_role",
          "type": "uint8"
        }
      ],
      "name": "addBeneficiary",
      "outputs": [],
      "stateMutability": "nonpayable",
      "type": "function"
    },
    {
      "inputs": [],
      "name": "releaseTokens",
      "outputs": [],
      "stateMutability": "nonpayable",
      "type": "function"
    }
  ],
  "bytecode": "0x60806040523480156200001157600080fd5b50604051620015a9380380620015a98339818101604052810190620000379190620001e9565b620000576200004b6200009f60201b60201c565b620000a760201b60201c565b80600160006101000a81548173ffffffffffffffffffffffffffffffffffffffff021916908373ffffffffffffffffffffffffffffffffffffffff160217905550506200021b565b600033905090565b60008060009054906101000a900473ffffffffffffffffffffffffffffffffffffffff169050816000806101000a81548173ffffffffffffffffffffffffffffffffffffffff021916908373ffffffffffffffffffffffffffffffffffffffff1602179055508173ffffffffffffffffffffffffffffffffffffffff168173ffffffffffffffffffffffffffffffffffffffff167f8be0079c531659141344cd1fd0a4f28419497f9722a3daafe3b4186f6b6457e060405160405180910390a35050565b600080fd5b600073ffffffffffffffffffffffffffffffffffffffff82169050919050565b60006200019d8262000170565b9050919050565b6000620001b18262000190565b9050919050565b620001c381620001a4565b8114620001cf57600080fd5b50565b600081519050620001e381620001b8565b92915050565b6000602082840312156200020257620002016200016b565b5b60006200021284828501620001d2565b91505092915050565b61137e806200022b6000396000f3fe608060405234801561001057600080fd5b50600436106100885760003560e01c80639252d73b1161005b5780639252d73b14610105578063a96f866814610135578063f2fde38b1461013f578063fc0c546a1461015b57610088565b8063015677391461008d5780635ba6e9e2146100c1578063715018a6146100dd5780638da5cb5b146100e7575b600080fd5b6100a760048036038101906100a29190610b00565b610179565b6040516100b8959493929190610b46565b60405180910390f35b6100db60048036038101906100d69190610bea565b6101af565b005b6100e561055c565b005b6100ef610570565b6040516100fc9190610c60565b60405180910390f35b61011f600480360381019061011a9190610b00565b610599565b60405161012c9190610c96565b60405180910390f35b61013d6105b9565b005b61015960048036038101906101549190610b00565b610819565b005b61016361089c565b6040516101709190610d10565b60405180910390f35b60026020528060005260406000206000915090508060000154908060010154908060020154908060030154908060040154905085565b6101b76108c2565b600360008573ffffffffffffffffffffffffffffffffffffffff1673ffffffffffffffffffffffffffffffffffffffff16815260200190815260200160002060009054906101000a900460ff1615610244576040517f08c379a000000000000000000000000000000000000000000000000000000000815260040161023b90610d88565b60405180910390fd5b6000600160009054906101000a900473ffffffffffffffffffffffffffffffffffffffff1673ffffffffffffffffffffffffffffffffffffffff166370a08231306040518263ffffffff1660e01b81526004016102a19190610c60565b602060405180830381865afa1580156102be573d6000803e3d6000fd5b505050506040513d601f19601f820116820180604052508101906102e29190610dbd565b905060008060028111156102f9576102f8610dea565b5b83600281111561030c5761030b610dea565b5b036103315760646032836103209190610e48565b61032a9190610ed1565b9050610405565b6001600281111561034557610344610dea565b5b83600281111561035857610357610dea565b5b0361037d57606460198361036c9190610e48565b6103769190610ed1565b9050610404565b6002808111156103905761038f610dea565b5b8360028111156103a3576103a2610dea565b5b036103c85760646019836103b79190610e48565b6103c19190610ed1565b9050610403565b6040517f08c379a00000000000000000000000000000000000000000000000000000000081526004016103fa90610f4e565b60405180910390fd5b5b5b6040518060a00160405280864261041c9190610f6e565b81526020014281526020018581526020018281526020016000815250600260008873ffffffffffffffffffffffffffffffffffffffff1673ffffffffffffffffffffffffffffffffffffffff16815260200190815260200160002060008201518160000155602082015181600101556040820151816002015560608201518160030155608082015181600401559050506001600360008873ffffffffffffffffffffffffffffffffffffffff1673ffffffffffffffffffffffffffffffffffffffff16815260200190815260200160002060006101000a81548160ff0219169083151502179055508573ffffffffffffffffffffffffffffffffffffffff167f4e7ee520cdf23a6622a36304e4b1833a45cd853e58d3e40659b1f2eec12eae02828560405161054c92919061100c565b60405180910390a2505050505050565b6105646108c2565b61056e6000610940565b565b60008060009054906101000a900473ffffffffffffffffffffffffffffffffffffffff16905090565b60036020528060005260406000206000915054906101000a900460ff1681565b6000600260003373ffffffffffffffffffffffffffffffffffffffff1673ffffffffffffffffffffffffffffffffffffffff16815260200190815260200160002090508060000154421015610643576040517f08c379a000000000000000000000000000000000000000000000000000000000815260040161063a90611081565b60405180910390fd5b600061068b826040518060a001604052908160008201548152602001600182015481526020016002820154815260200160038201548152602001600482015481525050610a04565b9050600081116106d0576040517f08c379a00000000000000000000000000000000000000000000000000000000081526004016106c7906110ed565b60405180910390fd5b8082600401546106e09190610f6e565b8260040181905550600160009054906101000a900473ffffffffffffffffffffffffffffffffffffffff1673ffffffffffffffffffffffffffffffffffffffff1663a9059cbb33836040518363ffffffff1660e01b815260040161074592919061110d565b6020604051808303816000875af1158015610764573d6000803e3d6000fd5b505050506040513d601f19601f820116820180604052508101906107889190611162565b6107c7576040517f08c379a00000000000000000000000000000000000000000000000000000000081526004016107be906111db565b60405180910390fd5b3373ffffffffffffffffffffffffffffffffffffffff167fc7798891864187665ac6dd119286e44ec13f014527aeeb2b8eb3fd413df931798260405161080d91906111fb565b60405180910390a25050565b6108216108c2565b600073ffffffffffffffffffffffffffffffffffffffff168173ffffffffffffffffffffffffffffffffffffffff1603610890576040517f08c379a000000000000000000000000000000000000000000000000000000000815260040161088790611288565b60405180910390fd5b61089981610940565b50565b600160009054906101000a900473ffffffffffffffffffffffffffffffffffffffff1681565b6108ca610a95565b73ffffffffffffffffffffffffffffffffffffffff166108e8610570565b73ffffffffffffffffffffffffffffffffffffffff161461093e576040517f08c379a0000000000000000000000000000000000000000000000000000000008152600401610935906112f4565b60405180910390fd5b565b60008060009054906101000a900473ffffffffffffffffffffffffffffffffffffffff169050816000806101000a81548173ffffffffffffffffffffffffffffffffffffffff021916908373ffffffffffffffffffffffffffffffffffffffff1602179055508173ffffffffffffffffffffffffffffffffffffffff168173ffffffffffffffffffffffffffffffffffffffff167f8be0079c531659141344cd1fd0a4f28419497f9722a3daafe3b4186f6b6457e060405160405180910390a35050565b60008160000151421015610a1b5760009050610a90565b81604001518260000151610a2f9190610f6e565b4210610a505781608001518260600151610a499190611314565b9050610a90565b81608001518260400151836000015142610a6a9190611314565b8460600151610a799190610e48565b610a839190610ed1565b610a8d9190611314565b90505b919050565b600033905090565b600080fd5b600073ffffffffffffffffffffffffffffffffffffffff82169050919050565b6000610acd82610aa2565b9050919050565b610add81610ac2565b8114610ae857600080fd5b50565b600081359050610afa81610ad4565b92915050565b600060208284031215610b1657610b15610a9d565b5b6000610b2484828501610aeb565b91505092915050565b6000819050919050565b610b4081610b2d565b82525050565b600060a082019050610b5b6000830188610b37565b610b686020830187610b37565b610b756040830186610b37565b610b826060830185610b37565b610b8f6080830184610b37565b9695505050505050565b610ba281610b2d565b8114610bad57600080fd5b50565b600081359050610bbf81610b99565b92915050565b60038110610bd257600080fd5b50565b600081359050610be481610bc5565b92915050565b60008060008060808587031215610c0457610c03610a9d565b5b6000610c1287828801610aeb565b9450506020610c2387828801610bb0565b9350506040610c3487828801610bb0565b9250506060610c4587828801610bd5565b91505092959194509250565b610c5a81610ac2565b82525050565b6000602082019050610c756000830184610c51565b92915050565b60008115159050919050565b610c9081610c7b565b82525050565b6000602082019050610cab6000830184610c87565b92915050565b6000819050919050565b6000610cd6610cd1610ccc84610aa2565b610cb1565b610aa2565b9050919050565b6000610ce882610cbb565b9050919050565b6000610cfa82610cdd565b9050919050565b610d0a81610cef565b82525050565b6000602082019050610d256000830184610d01565b92915050565b600082825260208201905092915050565b7f62656e656669636961727920616c726561647920616464656400000000000000600082015250565b6000610d72601983610d2b565b9150610d7d82610d3c565b602082019050919050565b60006020820190508181036000830152610da181610d65565b9050919050565b600081519050610db781610b99565b92915050565b600060208284031215610dd357610dd2610a9d565b5b6000610de184828501610da8565b91505092915050565b7f4e487b7100000000000000000000000000000000000000000000000000000000600052602160045260246000fd5b7f4e487b7100000000000000000000000000000000000000000000000000000000600052601160045260246000fd5b6000610e5382610b2d565b9150610e5e83610b2d565b9250817fffffffffffffffffffffffffffffffffffffffffffffffffffffffffffffffff0483118215151615610e9757610e96610e19565b5b828202905092915050565b7f4e487b7100000000000000000000000000000000000000000000000000000000600052601260045260246000fd5b6000610edc82610b2d565b9150610ee783610b2d565b925082610ef757610ef6610ea2565b5b828204905092915050565b7f496e76616c696420726f6c650000000000000000000000000000000000000000600082015250565b6000610f38600c83610d2b565b9150610f4382610f02565b602082019050919050565b60006020820190508181036000830152610f6781610f2b565b9050919050565b6000610f7982610b2d565b9150610f8483610b2d565b9250827fffffffffffffffffffffffffffffffffffffffffffffffffffffffffffffffff03821115610fb957610fb8610e19565b5b828201905092915050565b60038110610fd557610fd4610dea565b5b50565b6000819050610fe682610fc4565b919050565b6000610ff682610fd8565b9050919050565b61100681610feb565b82525050565b60006040820190506110216000830185610b37565b61102e6020830184610ffd565b9392505050565b7f636c69666620706572696f64206e6f7420726561636865642100000000000000600082015250565b600061106b601983610d2b565b915061107682611035565b602082019050919050565b6000602082019050818103600083015261109a8161105e565b9050919050565b7f6e6f2076657374656420746f6b656e7320617661696c61626c65000000000000600082015250565b60006110d7601a83610d2b565b91506110e2826110a1565b602082019050919050565b60006020820190508181036000830152611106816110ca565b9050919050565b60006040820190506111226000830185610c51565b61112f6020830184610b37565b9392505050565b61113f81610c7b565b811461114a57600080fd5b50565b60008151905061115c81611136565b92915050565b60006020828403121561117857611177610a9d565b5b60006111868482850161114d565b91505092915050565b7f746f6b656e207472616e73666572206661696c65640000000000000000000000600082015250565b60006111c5601583610d2b565b91506111d08261118f565b602082019050919050565b600060208201905081810360008301526111f4816111b8565b9050919050565b60006020820190506112106000830184610b37565b92915050565b7f4f776e61626c653a206e6577206f776e657220697320746865207a65726f206160008201527f6464726573730000000000000000000000000000000000000000000000000000602082015250565b6000611272602683610d2b565b915061127d82611216565b604082019050919050565b600060208201905081810360008301526112a181611265565b9050919050565b7f4f776e61626c653a2063616c6c6572206973206e6f7420746865206f776e6572600082015250565b60006112de602083610d2b565b91506112e9826112a8565b602082019050919050565b6000602082019050818103600083015261130d816112d1565b9050919050565b600061131f82610b2d565b915061132a83610b2d565b92508282101561133d5761133c610e19565b5b82820390509291505056fea2646970667358221220ab39c2f0f874223446294e33eb4deeca4b181fe8947061e78badd9c42e0cd98a64736f6c634300080d0033",
  "immutableReferences": {},
  "source": "// SPDX-License-Identifier: MIT\r\npragma solidity ^0.8.13;\r\n\r\n// importing necessary libarries from openzeppelin\r\nimport \"@openzeppelin/contracts/token/ERC20/IERC20.sol\";\r\nimport \"@openzeppelin/contracts/access/Ownable.sol\";\r\n\r\ncontract Vesting is Ownable {\r\n    IERC20 public token;\r\n\r\n    //roles for the beneficiaires\r\n    enum Role{User, Partner, Team}\r\n    \r\n    //initialized sturct called schedule for the beneficiary\r\n    struct Schedule {\r\n        uint256 cliff;\r\n        uint256 start;\r\n        uint256 duration;\r\n        uint256 amount;\r\n        uint256 released;\r\n    }\r\n\r\n    //mapping to store and check the beneficiaries (and added to track the no. of users)\r\n    mapping (address => Schedule) public beneficiaries;\r\n    mapping (address => bool) public addBeneficiaries;\r\n\r\n    event BeneficiaryAdded(address indexed beneficiary, uint256 amount, Role role);\r\n    event TokensReleased(address indexed beneficiary, uint256 amount);\r\n\r\n    constructor(IERC20 _token) {\r\n        token = _token;\r\n    }\r\n\r\n    // adding new beneficicary\r\n    function addBeneficiary(address _beneficiary, uint256 _cliff, uint256 _duration, Role _role) external onlyOwner {\r\n        // check if they exist or not\r\n        require(!addBeneficiaries[_beneficiary], \"beneficiary already added\");\r\n\r\n        uint256 totalTokens = token.balanceOf(address(this));\r\n        uint256 amount = 0;\r\n\r\n        if (_role == Role.User) {\r\n            amount = totalTokens * 50 / 100; // 50% of total tokens allocated to users\r\n        } else if (_role == Role.Partner) {\r\n            amount = totalTokens * 25 / 100; // 25% of total tokens allocated to partners\r\n        } else if (_role == Role.Team) {\r\n            amount = totalTokens * 25 / 100; // 25% of total tokens allocated to teams\r\n        } else {\r\n            revert(\"Invalid role\");\r\n        }\r\n\r\n        beneficiaries[_beneficiary] = Schedule({\r\n            cliff: block.timestamp + _cliff, // cliff period start\r\n            start: block.timestamp, // vesting start time\r\n            duration: _duration, // duration\r\n            amount: amount, // amount allocated\r\n            released: 0 // amount/tokens released (set to zero because new members have empty balances)\r\n        });\r\n\r\n        addBeneficiaries[_beneficiary] = true; // marking the beneficiary\r\n        emit BeneficiaryAdded(_beneficiary, amount, _role);\r\n    }\r\n\r\n    // function to calculate the amount released\r\n    function _vestedAmount(Schedule memory schedule) internal view returns (uint256) {\r\n        if (block.timestamp < schedule.cliff) {\r\n            return 0;\r\n        }\r\n        if (block.timestamp >= schedule.cliff + schedule.duration) {\r\n            return schedule.amount - schedule.released;\r\n        }\r\n            return ((schedule.amount * (block.timestamp - schedule.cliff)) / schedule.duration) - schedule.released;\r\n}\r\n\r\n\r\n    //function to release the amount\r\n    function releaseTokens() external {\r\n        Schedule storage schedule = beneficiaries[msg.sender];\r\n        require(block.timestamp >= schedule.cliff, \"cliff period not reached!\");\r\n        uint256 vested = _vestedAmount(schedule);\r\n        require(vested > 0, \"no vested tokens available\");\r\n\r\n        schedule.released = schedule.released + vested;\r\n        require(token.transfer(msg.sender, vested), \"token transfer failed\");\r\n\r\n        emit TokensReleased(msg.sender, vested);\r\n    }\r\n}\r\n\r\n",
  "sourcePath": "D:\\bc\\vesting-contracts\\contracts\\Vesting.sol",
  "compiler": {
    "name": "solc",
    "version": "0.8.13+commit.abaa5c0e.Emscripten.clang"
  },
  "schemaVersion": "3.4.16",
  "updatedAt": "2024-07-28T19:20:35.757Z",
  "networkType": "ethereum",
  "devdoc": {
    "kind": "dev",
    "methods": {
      "owner()": {
        "details": "Returns the address of the current owner."
      },
      "renounceOwnership()": {
        "details": "Leaves the contract without owner. It will not be possible to call `onlyOwner` functions. Can only be called by the current owner. NOTE: Renouncing ownership will leave the contract without an owner, thereby disabling any functionality that is only available to the owner."
      },
      "transferOwnership(address)": {
        "details": "Transfers ownership of the contract to a new account (`newOwner`). Can only be called by the current owner."
      }
    },
    "version": 1
  },
  "userdoc": {
    "kind": "user",
    "methods": {},
    "version": 1
  }
}